:020000040800F2
:10000000005000201D360008FD040008010500080E
:1000100005050008090500080D050008000000009E
:1000200000000000000000000000000011050008B2
:100030001505000800000000190500081D0500084E
:100040006536000865360008653600086536000824
:100050006536000865360008653600086536000814
:100060006536000865360008653600086536000804
:1000700065360008653600086536000865360008F4
:1000800065360008653600086536000865360008E4
:1000900065360008653600086536000865360008D4
:1000A00065360008653600086536000865360008C4
:1000B0002505000865360008653600083505000886
:1000C00065360008653600086536000865360008A4
:1000D00065360008450500086536000865360008E5
:1000E0006536000865360008653600080000000027
:1000F0000000000000000000000000000000000000
:0C01000000000000000000005FF808F1A3
:10010C0010B5054C237833B9044B13B10448AFF345
:10011C0000800123237010BD0C00002000000000A3
:10012C0070370008084B10B51BB108490848AFF3ED
:10013C0000800848036803B910BD074B002BFBD0A7
:10014C00BDE81040184700BF000000001000002060
:10015C00703700080C0000200000000000B589B0CA
:10016C000A4800F0B7F80A4800F0D8FA022201A9B0
:10017C00072003F0B0FA032201A9064803F0A0F807
:10018C004FF4FA7000F028FDF0E700BFB004002037
:10019C00DC0500209805002008B50D4B834215D1D5
:1001AC000C4B1B7833B900224FF480510A4801F0F4
:1001BC005BF905E001224FF48051074801F054F936
:1001CC00044A1378B3FA83F35B09137008BD00BFBC
:1001DC00DC05002028000020000C014010B582B086
:1001EC0014390C2908D8DFE801F029070718091C75
:1001FC000707070707072900002022E00022124BFF
:10020C001A7001201DE0104801784C1C047013F882
:10021C00014B0E484454013AD2B2002AF3D10120CA
:10022C000FE0094B1B784FF47A720092074A782141
:10023C00074801F0E9FD18B1002002E0012000E0C0
:10024C00012002B010BD00BF290000202C000020AE
:10025C004405002008B529392A2936D8DFE801F0F1
:10026C00211C16353835353535353535353535357B
:10027C003535353535353535353535353535353522
:10028C003535353838353525292D310000BF1FE07F
:10029C0000BF01339BB200E00023B3F5A07FF7D37E
:1002AC0016E0012000F098FC12E0002380F82730C3
:1002BC000EE0002380F827300AE0002380F8273076
:1002CC0006E0002380F8273002E0012380F8273075
:1002DC00012008BD10B50446074B084A084902F036
:1002EC00CFFB204602F0ECFE0021204602F0F0FE8F
:1002FC00204602F0B1FB10BD61020008E9010008C4
:10030C00B437000830B589B00024049405940694E1
:10031C000794184B9A6942F020029A619A6902F08C
:10032C0020020192019A9A6942F008029A619A6934
:10033C0002F008020292029A9A6942F004029A614F
:10034C009B6903F004030393039B0B4D22464FF46C
:10035C008051284601F088F84FF480530493012310
:10036C00059306940223079304A9284600F08EFFF8
:10037C0009B030BD00100240000C014008B572B647
:10038C0001224FF48051024801F06EF8F8E700BFEB
:10039C00000C014008B50A480A4B03600A4B436045
:1003AC0000238360C3604FF4804202614361836128
:1003BC00C361036201F04EFC08B1FFF7DFFF08BD1B
:1003CC004405002000540040801A060000B587B098
:1003DC000023029303930493059300930193154810
:1003EC004FF08042026041F61F424260836041F24E
:1003FC008732C26003618023836100F0BDFA08B1CB
:10040C00FFF7BCFF06A94FF4805341F8103D094893
:10041C0000F0ECFA08B1FFF7B1FF00230093019351
:10042C006946044800F054FB08B1FFF7A7FF07B07A
:10043C005DF804FBDC05002008B50A480A4B036094
:10044C004FF4E133436000238360C36003610C22EB
:10045C0042618361C36102F001FF08B1FFF78EFFB7
:10046C0008BD00BF980500200038014000B591B0D0
:10047C002822002106A803F030F9002301930293EF
:10048C00039304930593012206924FF48033079350
:10049C000A9202220D920E934FF4E0130F9306A8CA
:1004AC0000F0C4FB08B1FFF769FF0F230193022191
:1004BC000291002303934FF480620492059301A8E8
:1004CC0000F006FE08B1FFF759FF11B05DF804FB10
:1004DC0008B500F05DFBFFF7C9FFFFF713FFFFF74F
:1004EC0059FFFFF773FFFFF7A7FFFFF737FEFEE794
:1004FC00FEE700BFFEE700BFFEE700BFFEE700BF60
:10050C00FEE700BF704700BF704700BF704700BFD9
:10051C0008B500F04FFB08BD08B5024800F03AF9E9
:10052C0008BD00BFDC05002008B5024802F0C0F988
:10053C0008BD00BF4405002008B5024802F06CFF5E
:10054C0008BD00BF9805002082B00E4B9A6942F09E
:10055C0001029A619A6902F001020092009ADA692A
:10056C0042F08052DA61DB6903F080530193019B06
:10057C00054A536823F0E06343F08063536002B094
:10058C00704700BF001002400000014010B586B05B
:10059C00002302930393049305930268144B9A422D
:1005AC0024D1144CA36943F00803A361A36903F09D
:1005BC0008030093009BC02302931223039303238D
:1005CC00059302A90C4800F061FEE36943F40013A3
:1005DC00E361E36903F400130193019B00221146CC
:1005EC001F2000F0CBFF1F2000F0FAFF06B010BD5B
:1005FC000054004000100240000C01400368B3F1AD
:10060C00804F17D100B583B003F50433DA6942F09B
:10061C000102DA61DB6903F001030193019B002203
:10062C0011461C2000F0AAFF1C2000F0D9FF03B0DB
:10063C005DF804FB704700BF30B587B00023029310
:10064C0003930493059302681B4B9A4231D103F533
:10065C0058439A6942F480429A619A6902F4804242
:10066C000092009A9A6942F004029A619B6903F025
:10067C0004030193019B4FF4007302930223039331
:10068C00032305930D4D02A9284600F0FFFD4FF4FE
:10069C008063029300240394049402A9284600F07A
:1006AC00F5FD22462146252000F068FF252000F0AC
:1006BC0097FF07B030BD00BF003801400008014073
:1006CC0010B4036A046A24F001040462846924F0FF
:1006DC00F00444EA021223F00A0319438261016216
:1006EC0010BC704710B4036A23F0100303628469D2
:1006FC00036A24F4704444EA023223F0A00343EA70
:10070C0001118261016210BC704700BF836823F045
:10071C007003194341F007018160704790F83D3038
:10072C00DBB2012B27D1022380F83D300268D3685D
:10073C0043F00103D3600368114A93420AD0B3F12A
:10074C00804F07D0A2F59432934203D002F5806219
:10075C0093420AD19A6802F00702062A0DD01A6851
:10076C0042F001021A60002070471A6842F0010240
:10077C001A6000207047012070470020704700BFAE
:10078C00002C0140704700BF704700BF704700BF8E
:10079C00704700BF10B5044603681A6912F0020FC7
:1007AC0017D0DA6812F0020F13D06FF002021A6140
:1007BC000123037703689B6913F0030F02D0FFF743
:1007CC00E3FF04E0FFF7DEFF2046FFF7DFFF002327
:1007DC00237723681A6912F0040F19D0DA6812F023
:1007EC00040F15D06FF004021A61022323772368DB
:1007FC009B6913F4407F03D02046FFF7C5FF05E04B
:10080C002046FFF7BFFF2046FFF7C0FF00232377EA
:10081C0023681A6912F0080F19D0DA6812F0080F61
:10082C0015D06FF008021A61042323772368DB6963
:10083C0013F0030F03D02046FFF7A6FF05E0204678
:10084C00FFF7A0FF2046FFF7A1FF002323772368C3
:10085C001A6912F0100F19D0DA6812F0100F15D0B7
:10086C006FF010021A61082323772368DB6913F4F5
:10087C00407F03D02046FFF787FF05E02046FFF7B7
:10088C0081FF2046FFF782FF0023237723681A6934
:10089C0012F0010F09D0DA6812F0010F05D06FF0D9
:1008AC0001021A612046FFF777FC23681A6912F0DF
:1008BC00800F09D0DA6812F0800F05D06FF080023B
:1008CC001A61204600F03CF923681A6912F0400FB7
:1008DC0009D0DA6812F0400F05D06FF040021A61AF
:1008EC002046FFF755FF23681A6912F0200F09D034
:1008FC00DA6812F0200F05D06FF020021A61204642
:10090C0000F01CF910BD00BF03681A4A90420AD0CF
:10091C00B0F1804F07D0A2F59432904203D002F58B
:10092C008062904203D123F070034A681343114A4A
:10093C0090420AD0B0F1804F07D0A2F59432904289
:10094C0003D002F58062904203D123F44073CA684D
:10095C00134323F080034A69134303608B68C3621B
:10096C000B688362034B984201D10B69036301232B
:10097C0043617047002C014048B310B5044690F811
:10098C003D3013F0FF0F04D1002380F83C30FFF70B
:10099C0035FE022384F83D30211D2068FFF7B4FF9B
:1009AC00012384F8463084F83E3084F83F3084F8D4
:1009BC00403084F8413084F8423084F8433084F875
:1009CC00443084F8453084F83D30002010BD0120BF
:1009DC00704700BF10B4846824F47F4442EA0323B8
:1009EC00194344EA0103836010BC704790F83C3013
:1009FC00012B6AD010B50446012380F83C30022349
:100A0C0080F83D300268936823F47F4323F077032A
:100A1C0093600B68402B43D00AD8102B4AD002D8D5
:100A2C00002B47D04AE0202B44D0302B42D045E05D
:100A3C00602B2BD002D8502B1ED03FE0702B03D054
:100A4C00B3F5005F0CD039E0CB684A688968006860
:100A5C00FFF7C0FF2268936843F0770393602DE0A3
:100A6C00CB684A6889680068FFF7B4FF226893680E
:100A7C0043F48043936021E0CA6849680068FFF73B
:100A8C001FFE50212068FFF741FE17E0CA68496835
:100A9C000068FFF727FE60212068FFF737FE0DE0A6
:100AAC00CA6849680068FFF70BFE40212068FFF711
:100ABC002DFE03E019462068FFF728FE012384F879
:100ACC003D30002084F83C0010BD0220704700BF70
:100ADC0090F83C30012B2AD030B4012380F83C3004
:100AEC00022380F83D3003685A689D6822F0700438
:100AFC000A6822435A6003680F4A93420AD0B3F142
:100B0C00804F07D0A2F59432934203D002F5806255
:100B1C00934204D125F080054A6815439D6001235A
:100B2C0080F83D30002380F83C30184601E002206C
:100B3C00704730BC704700BF002C0140704700BFAD
:100B4C00704700BF10B504460E4B18784FF47A73FB
:100B5C00B3FBF0F30C4A1068B0FBF3F000F04EFD61
:100B6C0058B90F2C0BD8002221464FF0FF3000F063
:100B7C0005FD064B1C60002010BD012010BD01209E
:100B8C0010BD00BF04000020080000200000002061
:100B9C0008B5074A136843F010031360032000F0F4
:100BAC00DBFC0020FFF7CEFFFFF7CEFC002008BDDA
:100BBC0000200240034A1368034909780B44136070
:100BCC00704700BF2406002004000020014B186869
:100BDC00704700BF2406002038B50446FFF7F6FF27
:100BEC000546B4F1FF3F02D0044B1B781C44FFF7C1
:100BFC00EDFF401B8442FAD838BD00BF0400002032
:100C0C0082B0084B1B68084AA2FB03235B0A00FB5B
:100C1C0003F0019000BF019B5A1E0192002BF9D1E9
:100C2C0002B0704708000020D34D6210002800F07D
:100C3C00EC8170B582B00446036813F0010F6BD0E1
:100C4C00A84B5B6803F00C03042B0AD0A54B5B6824
:100C5C0003F00C03082B0DD1A24B5B6813F4803FFF
:100C6C0008D0A04B1B6813F4003F55D06368002BD1
:100C7C0052D1CCE16368B3F5803F05D1994A136832
:100C8C0043F48033136026E063B903F1804303F52A
:100C9C0004331A6822F480321A601A6822F4802213
:100CAC001A6018E0B3F5A02F0CD103F18043A3F523
:100CBC003C331A6842F480221A601A6842F480327B
:100CCC001A6008E0874B1A6822F480321A601A689E
:100CDC0022F480221A6063687BB1FFF777FF054628
:100CEC0005E0FFF773FF401B642800F292817D4BF7
:100CFC001B6813F4003FF4D00EE0FFF767FF0546C6
:100D0C0005E0FFF763FF401B642800F28481754BFC
:100D1C001B6813F4003FF4D1236813F0020F50D07A
:100D2C00704B5B6813F00C0F0AD06E4B5B6803F0D2
:100D3C000C03082B16D16B4B5B6813F4803F11D15D
:100D4C00684B1B6813F0020F03D02369012B40F092
:100D5C006481644A136823F0F803616943EAC103B0
:100D6C0013602EE02369D3B101225F4B1A60FFF7A9
:100D7C002DFF054605E0FFF729FF401B022800F276
:100D8C004E81584B1B6813F0020FF4D0554A136870
:100D9C0023F0F803616943EAC103136011E00022F8
:100DAC00514B1A60FFF712FF054605E0FFF70EFFE7
:100DBC00401B022800F235814A4B1B6813F0020FCE
:100DCC00F4D1236813F0080F29D0A369ABB1012229
:100DDC00464B1A60FFF7FAFE054605E0FFF7F6FEF4
:100DEC00401B022800F21F813E4B5B6A13F0020F7E
:100DFC00F4D00120FFF704FF11E000223B4B1A60F6
:100E0C00FFF7E4FE054605E0FFF7E0FE401B022875
:100E1C0000F20B81334B5B6A13F0020FF4D12368A1
:100E2C0013F0040F00F08B802E4BDB6913F0805F06
:100E3C000BD12C4BDA6942F08052DA61DB6903F09A
:100E4C0080530193019B012500E00025284B1B6872
:100E5C0013F4807F13D1264A136843F48073136014
:100E6C00FFF7B4FE064605E0FFF7B0FE801B6428D2
:100E7C0000F2DD801E4B1B6813F4807FF4D0E36816
:100E8C00012B05D1174A136A43F00103136222E0C8
:100E9C0063B903F1804303F504331A6A22F00102AB
:100EAC001A621A6A22F004021A6214E0052B09D1A4
:100EBC000C4B1A6A42F004021A621A6A42F00102DE
:100ECC001A6208E0074B1A6A22F001021A621A6AC7
:100EDC0022F004021A62E368D3B1FFF777FE0646EC
:100EEC0010E000BF00100240000042428004424269
:100EFC0000700040FFF76AFE801B41F28833984275
:100F0C0000F29780544B1B6A13F0020FF2D010E0E2
:100F1C00FFF75CFE064607E0FFF758FE801B41F228
:100F2C008833984200F287804B4B1B6A13F0020FF8
:100F3C00F2D125B1484AD36923F08053D361E369D8
:100F4C00002B7AD0444A526802F00C02082A4CD08A
:100F5C00022B37D10022414B1A60FFF737FE0546B2
:100F6C0004E0FFF733FE401B022868D83A4B1B689D
:100F7C0013F0007FF5D1236AB3F5803F06D13649D3
:100F8C004B6823F40032A36813434B603248436828
:100F9C0023F47411236A626A13430B4343600122E6
:100FAC002E4B1A60FFF712FE044604E0FFF70EFE0C
:100FBC00001B022845D8284B1B6813F0007FF5D086
:100FCC00002047E00022254B1A60FFF7FFFD044686
:100FDC0004E0FFF7FBFD001B022834D81E4B1B68F6
:100FEC0013F0007FF5D1002034E0012B2DD01A4BEB
:100FFC005B6803F48031226A914228D103F47013A8
:10100C00626A934225D0012024E001207047012020
:10101C0020E003201EE003201CE001201AE0032046
:10102C0018E0032016E0032014E0032012E0032054
:10103C0010E003200EE003200CE000200AE0032067
:10104C0008E0032006E0032004E0012002E0012078
:10105C0000E0002002B070BD00100240600042426F
:10106C0030B486B0164D02AC28686968AA68EB6883
:10107C000FC42B8AADF80430124B5B6803F00C02E2
:10108C00082A19D1C3F3834206A90A4412F8100C9A
:10109C0013F4803F0CD00B4B5B68C3F340430B4401
:1010AC0013F8142C084B03FB00F0B0FBF2F004E037
:1010BC00064B03FB00F000E0034806B030BC704761
:1010CC00883700080010024000127A0000093D0029
:1010DC00002800F09D8070B50446544B1B6803F04B
:1010EC0007038B420BD2514A136823F007030B43BF
:1010FC001360136803F00703994240F08B80236858
:10110C0013F0020F17D013F0040F04D0484A5368A1
:10111C0043F4E0635360236813F0080F04D0444A8F
:10112C00536843F4605353604148436823F0F00222
:10113C00A368134343600D46236813F0010F2ED0B0
:10114C006268012A05D13A4B1B6813F4003F0DD19C
:10115C0062E0022A05D1364B1B6813F0007F05D1E3
:10116C005CE0334B1B6813F0020F59D030494B68CD
:10117C0023F0030313434B60FFF728FD064606E0FC
:10118C00FFF724FD801B41F2883398424AD8284B44
:10119C005B6803F00C036268B3EB820FF0D1234B56
:1011AC001B6803F007039D420AD2204A136823F000
:1011BC0007032B431360136803F007039D4233D1DD
:1011CC00236813F0040F06D019494B6823F4E0622E
:1011DC00E36813434B60236813F0080F07D0144ADD
:1011EC00536823F46053216943EAC1035360FFF74A
:1011FC0037FF0F4B5B68C3F303130E4AD35CD84025
:10120C000D4B18600D4B1868FFF79CFC002070BD4F
:10121C0001207047012070BD012070BD012070BD00
:10122C00012070BD032070BD012070BD0020024064
:10123C00001002409C37000808000020000000202D
:10124C00014B1868704700BF0800002008B5FFF775
:10125C00F7FF044B5B68C3F30223034AD35CD8400B
:10126C0008BD00BF00100240AC37000808B5FFF7FE
:10127C00E7FF044B5B68C3F3C223034AD35CD8403B
:10128C0008BD00BF00100240AC370008F0B583B0B9
:10129C0000263446D4E00122A24013409A4240F08A
:1012AC00CE804D68122D2DD00BD8022D27D003D80F
:1012BC005DB3012D1ED035E0032D30D0112D1BD088
:1012CC0030E0634FBD4220D008D8A7F58017BD424F
:1012DC001BD007F58037BD4224D116E05D4FBD42CF
:1012EC0013D007F58037BD420FD0A7F58017BD424C
:1012FC0018D10AE0CE6815E0CE68043612E0CE684C
:10130C0008360FE0CE680C360CE08D684DB1012D1F
:10131C0002D10261082605E04261082602E000269F
:10132C0000E00426FF2B01D8864601E000F1040EF4
:10133C00FF2B01D8A20002E0A4F108029200DEF813
:10134C0000700F25954027EA050506FA02F22A439C
:10135C00CEF800204A6812F0805F70D03E4A956942
:10136C0045F001059561926902F001020192019A22
:10137C00A708BD1C394A52F8255004F0030292000C
:10138C004FF00F0E0EFA02FE25EA0E0E344DA84257
:10139C000DD005F58065A8420BD005F58065A842F7
:1013AC0009D005F58065A84207D1032506E0002584
:1013BC0004E0012502E0022500E0042505FA02F212
:1013CC004EEA02020237254D45F827204A6812F4EE
:1013DC00803F05D005F580652A681A432A6004E031
:1013EC00204D2A6822EA03022A604A6812F4003F60
:1013FC0004D01C4D6A681A436A6004E0194D6A688F
:10140C0022EA03026A604A6812F4801F04D0154D68
:10141C00AA681A43AA6004E0124DAA6822EA0302E1
:10142C00AA604A6812F4001F04D00E4DEA681343F8
:10143C00EB6004E00B4DEA6822EA0303EB60013435
:10144C000B6833FA04F27FF426AF03B0F0BD00BF93
:10145C00000021100000311000100240000001407B
:10146C0000080140000401400AB101617047090401
:10147C000161704790F82130022B06D0042383635E
:10148C00002380F82030012070470268136823F095
:10149C000E0313600268136823F001031360C16B21
:1014AC00036C012202FA03F34B6080F82120002325
:1014BC0080F820301846704708B590F82130022B80
:1014CC0003D004238363012008BD0268136823F052
:1014DC000E0313600268136823F0010313600368A2
:1014EC00194A934211D01432934210D014329342C1
:1014FC000FD0143293420FD0143293420FD01432C7
:10150C0093420FD14FF480120EE001220CE0102216
:10151C000AE04FF4807207E04FF4805204E04FF47D
:10152C00803201E04FF08072084B5A60012380F842
:10153C002130002380F82030436B13B198470020F2
:10154C0008BD002008BD00BF08000240000002409A
:10155C0090F82100704700BF074AD36823F4E0637A
:10156C001B041B0C000200F4E060184340F0BF6049
:10157C0040F40030D060704700ED00E030B4164B02
:10158C00DB68C3F30223C3F10704042C28BF042433
:10159C001D1D062D01D9DD1E00E00025012303FAD7
:1015AC0004F4013C2140A940AB40013B1A400A43E2
:1015BC00002808DB1201D2B200F1604000F5614056
:1015CC0080F8002305E000F00F001201D2B2034BAB
:1015DC001A5430BC704700BF00ED00E014ED00E081
:1015EC00002808DB420900F01F00012303FA00F079
:1015FC00014B43F82200704700E100E00138B0F1E4
:10160C00807F0AD2064B5860F021064A82F82310DC
:10161C000020986007221A6070470120704700BFB5
:10162C0010E000E000ED00E0704700BF90F83E30A5
:10163C00DBB2402B0ED1036D2BB90268436C03F067
:10164C00FE03136170470268436C43F00103DBB285
:10165C00136170470369B3F5804F1ED190F83D308C
:10166C00DBB2212B05D10268436C03F0FE0313613E
:10167C0005E00268436C43F00103DBB21361436B7A
:10168C000BB19B6A1BB9836BEBB19B6ADBB1026834
:10169C00536843F4006353607047036D43B90268A9
:1016AC00436CDB1103F0060343F0F0031361704746
:1016BC00036D012B07D10268436CDB1103F00603A9
:1016CC0043F0F103136170470268436CDBB21361A2
:1016DC00436B0BB19B6A1BB9836B33B19B6A23B110
:1016EC000268536843F400635360704710B48DB0C4
:1016FC0090F83E30DAB2C16A046B90F83D30DBB240
:10170C00222B40F0F180036D4BB9402A07D1019395
:10171C0003685A6901929B690193019BECE0036D8C
:10172C009BB90369B3F5404F0FD1002302930368B3
:10173C005A6902929A690292029A1A6842F4807269
:10174C001A60036D01330365D6E0438D9BB25BB920
:10175C00039303685A6903929A690392039A1A686D
:10176C0042F400721A60BCE0438D9BB2012B59D13C
:10177C0011F5803F22D10268136823F48063136053
:10178C0003685A6812F4006F0CD01A6822F4806255
:10179C001A600023049303685A6904929B690493AA
:1017AC00049B9EE0002205925A6905929A69059263
:1017BC00059A1A6842F400721A6092E008291FD048
:1017CC0020291DD0122C01D1012919D1042909D0AD
:1017DC00022907D0102905D00268136823F480630E
:1017EC00136004E00268136843F480631360002301
:1017FC00069303685A6906929B690693069B70E0F0
:10180C000268136823F48063136000230793036852
:10181C005A6907929A690792079A1A6842F40072F9
:10182C001A605EE0438D9BB2022B39D1042915D08E
:10183C00022913D0102911D00268136843F40063F5
:10184C0013600023089303685A6908929A690892F6
:10185C00089A1A6822F480621A600CE00268136815
:10186C0043F4806313600023099303685A69099257
:10187C009B690993099B03685A6812F4006F30D076
:10188C0011F5803F07D0012905D0082903D0102974
:10189C0001D0202925D15A6842F480525A6020E0A8
:1018AC000268136843F48063136003685A6812F487
:1018BC00006F0ED011F5803F07D0012905D0082903
:1018CC0003D0102901D0202903D15A6842F4805248
:1018DC005A6000230A9303685A690A929B690A9317
:1018EC000A9B0023036507E000230B9303685A69E6
:1018FC000B929B690B930B9B0DB010BC704700BFF8
:10190C00438D9BB25BB10368426A12781A61436AD9
:10191C0001334362438D9BB2013B9BB243857047BD
:10192C00438D9BB25BB1436A026812691A70436AB9
:10193C0001334362438D9BB2013B9BB2438570479D
:10194C0082B0002301930E4B1B68DB080D4AA2FBEF
:10195C0003231B0A03EB83030193019B013B0193BC
:10196C00019B2BB9036C43F020030364012005E0B9
:10197C0003681B6813F4007FEFD1002002B070479E
:10198C000800002089B5F81403685A6912F4806FB6
:10199C0011D06FF480625A6100230363202280F817
:1019AC003D2080F83E30026C42F00402026480F864
:1019BC003C30012070470020704700BFC36AB3F56C
:1019CC002A0F02D10123C3627047C36AB3F12A4FB5
:1019DC0001D10823C3627047F8B506460C4617467A
:1019EC001D4618E0B5F1FF3F15D0FFF7EFF8069B49
:1019FC00C01A854200D375B900233363202286F8C0
:101A0C003D2086F83E30326C42F02002326486F87B
:101A1C003C300120F8BDC4F30743012B08D13368D7
:101A2C005B6924EA03039BB2B3FA83F35B0907E017
:101A3C0033689B6924EA03039BB2B3FA83F35B0913
:101A4C00BB42CFD00020F8BDF8B504460D46164673
:101A5C001F4633E023685A6912F4806F16D01A6857
:101A6C0042F400721A6023686FF480625A6100239A
:101A7C002363202284F83D2084F83E30226C42F00F
:101A8C000402226484F83C300120F8BDB6F1FF3F1B
:101A9C0014D0FFF79BF8C01B864200D376B9002305
:101AAC002363202284F83D2084F83E30226C42F0DF
:101ABC002002226484F83C300120F8BDC5F30743B2
:101ACC00012B08D123685B6925EA03039BB2003321
:101ADC0018BF012307E023689B6925EA03039BB227
:101AEC00003318BF0123002BB4D10020F8BD00BF78
:101AFC00F0B583B004460F4615461E46C36A082B44
:101B0C0004D0012B02D013F5803F05D12268136855
:101B1C0043F48073136007E0036B122B04D102684B
:101B2C00136843F48073136000962B4600224FF029
:101B3C0001112046FFF750FF48B123681B6813F4CE
:101B4C00807F28D04FF400732364032326E023699D
:101B5C00B3F5804F04D1236807F0FE071F6110E036
:101B6C002268FB1103F0060343F0F00313613346C4
:101B7C002A460C492046FFF767FF70B92368FFB26D
:101B8C001F6133462A4608492046FFF75DFF03468E
:101B9C0020B1012302E0032300E00123184603B027
:101BAC00F0BD00BF080001000200010070B5044642
:101BBC000D4616461BE02046FFF7E6FEF0B9B5F1E0
:101BCC00FF3F14D0FFF702F8801B854200D375B994
:101BDC0000232363202284F83D2084F83E30226CBD
:101BEC0042F02002226484F83C30012070BD23684E
:101BFC005B6913F0800FDED0002070BD012070BD3A
:101C0C0070B504460D4616461BE02046FFF7BCFE99
:101C1C00F0B9B5F1FF3F14D0FEF7D8FF801B854219
:101C2C0000D375B900232363202284F83D2084F867
:101C3C003E30226C42F02002226484F83C300120B9
:101C4C0070BD23685B6913F0040FDED0002070BDFB
:101C5C00012070BD002800F0C980F8B5044690F84A
:101C6C003D3013F0FF0F04D1002380F83C30FEF719
:101C7C008DFC242384F83D302268136823F0010383
:101C8C0013602268136843F40043136022681368DE
:101C9C0023F400431360FFF7D9FA6268554B9A425C
:101CAC0005D8554B98428CBF0023012304E0534BBD
:101CBC0098428CBF00230123002B40F09980504B9D
:101CCC00A3FB00239B0C21684A6822F03F021A43B5
:101CDC004A6025682A6A22F03F02666845498E42AE
:101CEC0001D8013308E04FF4967101FB03F3454929
:101CFC00A1FB03139B09013313432B622568E9698C
:101D0C0021F44F4121F0FF0166683A4B9E420AD8FC
:101D1C00431E7000B3FBF0F00130C0F30B0004283D
:101D2C0038BF042035E0A3685BB9421E06EB4607BA
:101D3C00B2FBF7F20132C2F30B02B2FA82F2520991
:101D4C000CE0421E06EB860707EB8707B2FBF7F2A7
:101D5C000132C2F30B02B2FA82F25209C2B953B980
:101D6C00421E06EB4600B2FBF0F00130C0F30B0351
:101D7C0043F400400DE0421E06EB860606EB860699
:101D8C00B2FBF6F30133C3F30B0343F4404000E022
:101D9C0001200843E86121680B6823F0C002E06968
:101DAC00236A034313430B6021688B6823F40342BB
:101DBC0022F0FF022069E368034313438B60216820
:101DCC00CB6823F0FF026069A36903431343CB6024
:101DDC002268136843F00103136000202064202361
:101DEC0084F83D30206384F83E00F8BD0120704734
:101DFC000120F8BDA08601007F841E00FF083D0075
:101E0C0083DE1B43D34D62102DE9F04184B00446B0
:101E1C000D4690461F46FEF7D9FE94F83D30DBB2D6
:101E2C00202B40F096800646009019230122504941
:101E3C002046FFF7D1FD002840F08D8094F83C300F
:101E4C00012B00F08A80012384F83C3023681A6847
:101E5C0012F0010F03D11A6842F001021A602268D5
:101E6C00136823F400631360212384F83D3010239E
:101E7C0084F83E3000232364C4F824806785638D86
:101E8C0023853C4BE36233460A9A29462046FFF7EA
:101E9C002FFE0546002862D10023039323685A695C
:101EAC0003929B690393039B42E032460A992046B6
:101EBC00FFF77CFE48B1236C042B52D122681368C7
:101ECC0043F40073136001254EE02368626A1278B4
:101EDC001A61616A4B1C6362638D9BB2013B9BB2BE
:101EEC006385238D013B9BB223852268506910F0DA
:101EFC00040F0DD063B14B781361636A01336362D5
:101F0C00638D9BB2013B9BB26385238D013B238583
:101F1C0032460A992046FFF773FE48B1236C042B16
:101F2C0021D12268136843F40073136001251BE070
:101F3C00238D002BB9D12268136843F4007313600E
:101F4C00202384F83D30002384F83E3084F83C3064
:101F5C000AE0022508E0022506E0022504E001253E
:101F6C0002E0012500E00125284604B0BDE8F0811F
:101F7C00020010000000FFFF704700BF704700BF59
:101F8C00704700BF08B590F83D30DAB2438D9BB274
:101F9C00E3B10368416A09781961436A013343620A
:101FAC00438D9BB2013B9BB24385438D9BB26BB976
:101FBC00292A0BD10268536823F4806353602123D0
:101FCC000363282380F83D30FFF7DAFF08BD00BF1C
:101FDC00704700BF08B590F83D30DAB2438D9BB224
:101FEC00E3B1436A016809691970436A01334362BA
:101FFC00438D9BB2013B9BB24385438D9BB26BB926
:10200C002A2A0BD10268536823F48063536022237D
:10201C000363282380F83D30FFF7DAFF08BD00BFCB
:10202C00704700BF00B583B090F83D3003F0280333
:10203C00282B17D10268536823F48063536011F086
:10204C00040F01D0002300E0012311F0800F01D117
:10205C00828900E0028B002180F83C101946FFF7C2
:10206C00DFFF09E000230193026851690191926935
:10207C000192019A80F83C3003B05DF804FB00BF7C
:10208C00704700BF704700BF08B5C26A90F83D307A
:10209C00DBB2212B45D1438D9BB263B10368426AFD
:1020AC0012781A61436A01334362438D9BB2013B40
:1020BC009BB2438508BD082A14D0202A12D012F5F1
:1020CC00803F0FD00268536823F4E0635360112300
:1020DC000363002380F83E30202380F83D30FFF767
:1020EC004BFF08BD0268536823F4E0635360026839
:1020FC00136843F40073136000230363202380F8F8
:10210C003D3090F83E30DBB2402B05D1002380F8F7
:10211C003E30FFF7B7FF08BD002380F83E30FFF7D5
:10212C002BFF08BD08B590F83D30026D9AB9C36C11
:10213C00012B07D10268836CDBB21361036D023390
:10214C00036508BD0268836CC3F307231361036D39
:10215C000133036508BDDBB2026D012A07D10268A9
:10216C00836CDBB21361036D0133036508BD026D33
:10217C00022A34D1222B08D10268136843F48073ED
:10218C001360036D0133036508BD428D92B272B1C9
:10219C00212B0CD10368426A12781A61436A01330D
:1021AC004362438D9BB2013B9BB2438508BD428D7C
:1021BC0092B2A2B9212B12D10268536823F4E063C6
:1021CC0053600268136843F40073136000230363C5
:1021DC00202280F83D2080F83E30FFF753FF08BDE9
:1021EC0010B590F83D30DBB290F83E20D2B2C46A04
:1021FC00018D002938D1212B36D1082C14D0202C5C
:10220C0012D014F5803F0FD00268536823F4E063BA
:10221C00536011230363002380F83E30202380F8A1
:10222C003D30FFF7A9FE10BD0268536823F4E0634C
:10223C0053600268136843F4007313600023036354
:10224C00202380F83D3090F83E30DBB2402B05D196
:10225C00002380F83E30FFF715FF10BD002380F8F7
:10226C003E30FFF789FE10BD212B03D0402A1ED132
:10227C00222B1CD1438D9BB22BB90268536823F4DB
:10228C008063536010BD90F83E30DBB2402B02D11E
:10229C00FFF748FF10BD0368426A12781A61436A5F
:1022AC0001334362438D9BB2013B9BB2438510BD0E
:1022BC00704700BF08B5C26A438D9BB2042B11D185
:1022CC000268536823F480635360436A026812699E
:1022DC001A70436A01334362438D9BB2013B9BB23C
:1022EC00438508BD438D9BB2032B1AD101684B6803
:1022FC0023F480634B60042A06D0022A04D00268BF
:10230C00136823F480631360436A026812691A70BD
:10231C00436A01334362438D9BB2013B9BB24385BD
:10232C0008BD438D9BB2022B4DD1012A01D0102A3E
:10233C0005D10268136823F48063136010E0042A4B
:10234C0001D0022A05D10268136843F4806313603C
:10235C0006E0102A04D00268136843F4007313607B
:10236C00436A026812691A70426A531C4362438DB5
:10237C009BB2013B9BB2438503681B695370436A54
:10238C0001334362438D9BB2013B9BB24385026890
:10239C00536823F440735360202380F83D3090F849
:1023AC003E30DBB2402B06D1002380F83E30036375
:1023BC00FFF77EFF08BD002380F83E301223036335
:1023CC00FFF7DCFD08BD436A026812691A70436AA4
:1023DC0001334362438D9BB2013B9BB2438508BDE5
:1023EC00704700BF90F83D30DBB2222B18D1438DE3
:1023FC009BB2032B15D9436A026812691A70436A9F
:10240C0001334362438D9BB2013B9BB24385438DA9
:10241C009BB2032B04D10268536823F4806353608E
:10242C007047C26A022AFBD0012BF9D810B50446BA
:10243C00FFF786FA00282ED12268136823F48063F4
:10244C0013602268536823F4E0635360636A226864
:10245C0012691A70636A01336362638D9BB2013B2C
:10246C009BB26385202384F83D3094F83E30DBB278
:10247C00402B07D1002384F83E3023632046FFF71E
:10248C0017FF10BD002384F83E301223236320462F
:10249C00FFF774FD10BD2268536823F4E0635360AA
:1024AC00636A226812691A70636A01336362638D0E
:1024BC009BB2013B9BB26385202384F83D30002303
:1024CC0084F83E302046FFF78BFF10BD704700BFED
:1024DC0000B583B000230193406A90F83D20D2B23E
:1024EC00324B1B68DB083249A1FB03131B0A03EBBD
:1024FC008303C3EBC3030193019B23B9036C43F028
:10250C002003036407E0019B013B019303681B68F4
:10251C0013F4007FF0D1436B0BB100219962836BF4
:10252C000BB10021996201680B6823F480630B6086
:10253C0000234385436B0BB100215963836B0BB1B3
:10254C000021596301680B6823F001030B6090F8BC
:10255C003D30DBB2602B09D1202380F83D300023C5
:10256C0080F83E300364FFF7B1FF1BE002F0280255
:10257C00282A0FD10268136843F001031360026824
:10258C00136843F48063136000230363282380F8EB
:10259C003D3005E0202380F83D30002380F83E30AC
:1025AC00FFF71EFF03B05DF804FB00BF080000201E
:1025BC0089B5F81410B5044690F83D30DBB290F8AC
:1025CC003E20D2B2102A01D0402A06D1222B04D1AF
:1025DC0021680A6822F400620A6003F02802282AA3
:1025EC0005D100232363282384F83D300EE02268B4
:1025FC00526812F4006F07D1602B05D0202384F8A9
:10260C003D30002384F83E300023236323685A684E
:10261C0012F4006F3AD05A6822F400625A60636B6D
:10262C0093F82120012A12D03D4A5A63606BFEF7C1
:10263C0043FF002854D02268136823F00103136071
:10264C00202384F83D30606B436B984748E0A36BC4
:10265C00334A5A63A06BFEF72FFF002840D0236843
:10266C005A6912F0400F05D0626A1B691370636AD5
:10267C00013363622268136823F001031360202383
:10268C0084F83D30A06B436B984729E094F83D20CB
:10269C00D2B2602A17D1202284F83D200022226475
:1026AC005A6912F0400F05D0626A1B691370636A95
:1026BC00013363622268136823F001031360204620
:1026CC00FFF704FF0CE05A6912F0400F05D0626A64
:1026DC001B691370636A013363622046FFF780FE47
:1026EC00236C13F00F0F04D02268536823F4E063BB
:1026FC00536094F83D30DBB2226C12F0040F0DD015
:10270C00282B0BD1074BE36200232363202284F890
:10271C003D2084F83E302046FFF7B2FC10BD00BFD0
:10272C00DD2400080000FFFF30B583B0044690F8AC
:10273C003D50EDB20268536823F4E063536000230C
:10274C00019303685A6901921A6842F001021A60F7
:10275C00019B0268136823F48063136003685A6852
:10276C0012F4006F42D0222D01D02A2D1FD1A26B62
:10277C001268526892B26285628D92B21AB1226C62
:10278C0042F0040222645A6822F400625A60A06B80
:10279C00FEF7DEFE012829D0A36B434A5A63A06BD7
:1027AC00FEF78AFE10B3A06B436B98471EE0426B9A
:1027BC001268526892B24285428D92B21AB1026C82
:1027CC0042F0040202645A6822F400625A60606BA0
:1027DC00FEF7BEFE012809D0636B334A5A63606B67
:1027EC00FEF76AFE10B1606B436B9847638D9BB22A
:1027FC0033B323685A6912F0040F0AD0626A1B695A
:10280C001370636A01336362638D9BB2013B9BB2AD
:10281C00638523685A6912F0400F0AD0626A1B69FB
:10282C001370636A01336362638D9BB2013B9BB28D
:10283C006385638D9BB21BB1236C43F0040323644B
:10284C00236C1BB12046FFF7B5FE2AE02A2D07D1D9
:10285C0000232363282384F83D302046FFF7B8FB80
:10286C0094F83D30DBB2282B0CD1104BE3620023E3
:10287C002363202284F83D2084F83E302046FFF765
:10288C00FFFB0EE0236B222B01D0222D09D100235C
:10289C002363202284F83D2084F83E302046FFF745
:1028AC0097FB03B030BD00BFDD2400080000FFFF24
:1028BC00F8B5044602685568C66A90F83E30DBB23B
:1028CC0090F83D10C8B2102B01D0402B74D1D2F827
:1028DC0018E0516911F001070DD1B6F52A0F04D09B
:1028EC00B6F12A4F03D1012602E0012600E00026B2
:1028FC00002E40F0B0804FB115F4007F06D020467A
:10290C00FFF75CF82046FEF791FEF8BD11F0080FBA
:10291C0006D015F4007F03D02046FEF7D5FEF8BD97
:10292C0011F0020F06D015F4007F03D02046FEF7FD
:10293C00DDFEF8BD1EF0040F23D0526812F4006FB8
:10294C0040F0898011F0800F09D015F4806F06D00B
:10295C0011F0040F03D12046FFF742FCF8BD11F033
:10296C00040F78D015F4007F75D0212803D12046B0
:10297C00FFF78AFBF8BD402B6DD12046FFF7D2FB49
:10298C00F8BD536813F4006F65D111F0400F09D0F6
:10299C0015F4806F06D011F0040F03D12046FFF719
:1029AC0021FDF8BD11F0040F55D015F4007F52D065
:1029BC002046FFF77FFCF8BD236C13B1536900214F
:1029CC0001E09169536913F0020F09D015F4007FEF
:1029DC0006D0236C03B191692046FFF723FBF8BDA9
:1029EC0013F0100F06D015F4007F03D02046FFF72C
:1029FC009BFEF8BD212801D0292816D113F0800F99
:102A0C0009D015F4806F06D013F0040F03D12046C3
:102A1C00FFF7B8FAF8BD13F0040F1CD015F4007FC3
:102A2C0019D02046FEF76CFFF8BD13F0400F09D00B
:102A3C0015F4806F06D013F0040F03D12046FFF776
:102A4C00C9FAF8BD13F0040F05D015F4007F02D0BD
:102A5C002046FEF765FFF8BD08B503681B7C90F8AF
:102A6C00382003FB02F2D2000021406B00F035FE4F
:102A7C0008BD00BF0823037000487047AC0000205D
:102A8C0030B585B004460D4600931346084A0949F3
:102A9C0000F042FB0DF10F00FFF7ECFF9DF80F204B
:102AAC000095054B0146204600F022F905B030BDDB
:102ABC00692E00080D300008512B000800207047CB
:102ACC00014BC365704700BFC92A000830B583B0FD
:102ADC00C48F121BC46A9DF81850009592B2A0477F
:102AEC0003B030BD8A4205D2834209D89A4209D933
:102AFC0001207047834207D99A4207D901207047B9
:102B0C00012070470020704700207047002070475C
:102B1C0070B504460D461E46BDF81030B0F84E1088
:102B2C00B0F84C00FFF7DEFF034640B133462A46AF
:102B3C00B4F84A10B4F84800FFF7D4FF034618461F
:102B4C0070BD00BFF0B59DF814E002F0070401253C
:102B5C00A540EDB290F89270012F01D9002600E04B
:102B6C002E46012F00D1002522F0070207683F7C7A
:102B7C0002FB07F292B2476B11443944BEF1000FCD
:102B8C000AD10A783243D2B26A4001F8012B013BD8
:102B9C009BB2002BF5D1F0BD0A783243D2B26A4019
:102BAC000A70621C013B9BB212F0070409D1428FE0
:102BBC00114490F89220012A00D80126012A05D14F
:102BCC0005E07600F6B26D00EDB200E00125002BB9
:102BDC00E2D1F0BDF0B4026890F83860B3B2D9001D
:102BEC008187147CE400448790F839108FB2FC0084
:102BFC00C4873144557CA94201DDEB1B9BB2DB0041
:102C0C009BB2A0F840402344A0F84230938AA0F82D
:102C1C004430D38AA0F84630F0BC704708B5FFF7B3
:102C2C00D9FF08BD30B583B00446B0F85230B0F8C7
:102C3C005420B0F85010B0F856500095FFF768FFCC
:102C4C0018B9002384F88C3022E0012384F88C30EE
:102C5C00B4F84820B4F850309A4201D2A4F8483065
:102C6C00B4F84A20B4F852309A4201D9A4F84A3048
:102C7C00B4F84C20B4F854309A4201D2A4F84C3039
:102C8C00B4F84E20B4F856309A4201D9A4F84E301C
:102C9C0003B030BD08B50022A0F84820B0F844209D
:102CAC00A0F84A20B0F84020A0F84C20B0F8422000
:102CBC00A0F84E20FFF7B6FF08BD00BF10B582B0DC
:102CCC009DF810400094FFF701FF02B010BD00BF4B
:102CDC0008B50022A0F85020A0F854204FF6FF723F
:102CEC00A0F85220A0F85620036B5B68984708BDEB
:102CFC0070B50446049E00258565C362416380F867
:102D0C00382080F8395080F86D5080F891500123AC
:102D1C0080F8923080F893300663336898472046E9
:102D2C00FFF7D6FF2046FFF7CBFE84F8705070BD3E
:102D3C0010B5046913460A461721A04710BD00BF01
:102D4C0000B583B002AA02F8011D0121FFF7F0FFC4
:102D5C0003B05DF804FB00BF10B5046900231A46EC
:102D6C001821A04710BD00BF10B5046900231A46F6
:102D7C001921A04710BD00BFF8B504460E461746F2
:102D8C00FFF7EAFF40212046FFF7DAFF25693B46B3
:102D9C00324617212046A8472046FFF7E5FFF8BD2D
:102DAC0010B5C46800230A461521A04710BD00BF0A
:102DBC0010B5C46800230A461621A04710BD00BFF9
:102DCC0010B5C46813460A461721A04710BD00BFB2
:102DDC0010B5C46800231A461821A04710BD00BFC7
:102DEC0010B5C46800231A461921A04710BD00BFB6
:102DFC0070B582B005460C4614F8011B172911D08A
:102E0C0002D8152905D226E0192915D9FE2919D081
:102E1C0021E014F8012B8DF80720EE6800232846DA
:102E2C00B047E9E714F8013B02AA02F8013D012181
:102E3C002846FFF7C5FFDFE7EE6800231A46284651
:102E4C00B047D9E714F8012B8DF807202921284623
:102E5C0000F046F9D0E702B070BD00BFF8B50646E9
:102E6C0014461D46A1F11403052B53D8DFE803F0DB
:102E7C003603171C4348284B1B780BB1FFF774FF24
:102E8C003046FFF769FF00213046FFF759FF214616
:102E9C003046FFF755FF01201F4B1870F8BD214637
:102EAC00FFF74EFF0120F8BD1B4B1B7853B1FFF70A
:102EBC005BFF07E02A4618213046FFF75DFF183C00
:102ECC00E4B21835182CF5D82A4621463046FFF7BF
:102EDC0053FF0022104B1A700120F8BD90F82430DB
:102EEC00FF2B02D1782380F8243037692B462246F9
:102EFC003046B847F8BD0022074B1A700120F8BDC8
:102F0C00054B1B780BB1FFF72FFF0022024B1A70F9
:102F1C000120F8BD0020F8BDAC040020F8B5054632
:102F2C0014461E460B39042960D8DFE801F0035F14
:102F3C000E21300022B92E49FFF75AFF0120F8BDAF
:102F4C002C49FFF755FF0120F8BD42B92A49FFF77C
:102F5C004FFF2B689B7C85F822300120F8BD274958
:102F6C00FFF746FF2B68DB7C85F822300120F8BD8B
:102F7C00FFF72EFF81212846FFF712FF2146284636
:102F8C00FFF716FF2846FFF72BFF0120F8BDFFF7D0
:102F9C001FFF7779FF00FFB295F822301F44FFB274
:102FAC0040212846FFF7FCFE390941F01001284664
:102FBC00FFF7F6FE07F00F012846FFF7F9FEB1798F
:102FCC0041F0B0012846FFF7F3FE3179C9003268B1
:102FDC0001F0F8012846FFF7F3FE621E12F0FF0421
:102FEC00F3D12846FFF7FCFE0120F8BD0020F8BD08
:102FFC00C0370008C8370008E83700082838000830
:10300C0038B505460C46FFF789FF98B90346092CDD
:10301C000AD00A2C0FD1284600F01AF80749284686
:10302C00FFF7E6FE012306E00549284600F00AF802
:10303C00012300E00123184638BD00BFF03700081B
:10304C00D037000801608B7C80F82230704700BFBD
:10305C0038B50446456900231A462821A847E56877
:10306C0000231A4614212046A84701224B21204652
:10307C0000F036F823681A792921204600F030F840
:10308C0000224B21204600F02BF823681A792921C5
:10309C00204600F025F801224B21204600F020F8B4
:1030AC0023685A792921204600F01AF838BD00BF50
:1030BC0010B5846800231A460921A04710BD00BF33
:1030CC0010B5846800231A460A21A04710BD00BF22
:1030DC0010B5846800230A460B21A04710BD00BF21
:1030EC0010B544690023A04710BD00BF00207047F5
:1030FC0000230360074A8260C2600261426180F86B
:10310C00233080F826308361FF2380F8243080F848
:10311C0028307047F9300008F8B504460F461646BB
:10312C001D46FFF7E5FFA760E6602561069B63611E
:10313C002046FFF7BDFFF8BD0268D36823F49073F7
:10314C00D3600268536923F001035361036B012BB5
:10315C0004D10268D36823F01003D360202380F8D5
:10316C003E3000230363704790F83D30DBB2212BD7
:10317C0027D18368B3F5805F0BD103694BB9036A20
:10318C0002681B88C3F308035360036A02330362AB
:10319C0005E00268036A591C01621B785360C38CFA
:1031AC009BB2013B9BB2C3846BB90268D36823F01A
:1031BC008003D3600268D36843F04003D3600020DF
:1031CC007047022070470020704700BF10B50446BE
:1031DC0001680B6923F44052C36813430B61816887
:1031EC0003691943436919430068C26822F4B05358
:1031FC0023F00C030B43C36021684B6923F440722A
:10320C00A36913434B612268124B9A4202D1FEF719
:10321C002DF801E0FEF71AF8216800EB800000EBB6
:10322C00800063689B00B0FBF3F00B4BA3FB002406
:10323C006409642202FB140212013232A3FB022342
:10324C005B0903F0F00202EB041403F00F032344B8
:10325C008B6010BD003801401F85EB5168B310B571
:10326C00044690F83D3013F0FF0F04D1002380F892
:10327C003C30FDF7E1F9242384F83D302268D36813
:10328C0023F40053D3602046FFF7A0FF2268136994
:10329C0023F4904313612268536923F02A0353618A
:1032AC002268D36843F40053D360002020642023A9
:1032BC0084F83D3084F83E3010BD0120704700BFCB
:1032CC0090F83D30DBB2202B16D1B9B1C2B190F8D9
:1032DC003C30012B16D001628284C284002303642B
:1032EC00212280F83D2080F83C300168CA6842F009
:1032FC008002CA6018467047022070470120704750
:10330C000120704702207047704700BF08B5016864
:10331C00CB6823F04003CB60202380F83D30FFF7CF
:10332C00F3FF002008BD00BF704700BF704700BF0F
:10333C0008B5406A0023C385C384FFF7F7FF08BDB7
:10334C00704700BF90F83E30DBB2222B5CD1836813
:10335C00B3F5805F0BD102694AB9826A03685B6876
:10336C00C3F308031380836A0233836212E0826A18
:10337C00B3F5805F02D02BB903691BB903685B6896
:10338C00137004E003685B6803F07F031370836AB7
:10339C0001338362C38D9BB2013B9BB2C385002B6F
:1033AC0034D100B583B00268D36823F02003D36016
:1033BC000268D36823F48073D3600268536923F0E6
:1033CC0001035361202380F83E30036B012B17D18E
:1033DC00002303630268D36823F01003D3600368EF
:1033EC001A6812F0100F06D0002201921A6801928E
:1033FC005B680193019B818DFFF7A2FF002007E022
:10340C00FFF792FF002003E0022070470020704776
:10341C0003B05DF804FB00BF30B583B0044602680E
:10342C001368D068516913F00F0509D113F0200F00
:10343C0006D010F0200F03D02046FFF783FFE2E008
:10344C00002D68D011F0010102D110F4907F62D0F0
:10345C0013F0010F06D010F4807F03D0226C42F0E1
:10346C000102226413F0040F04D019B1226C42F053
:10347C000202226413F0020F04D019B1226C42F044
:10348C000402226413F0080F07D010F0200F00D1B3
:10349C0019B1226C42F008022264226C002A00F05E
:1034AC00B28013F0200F05D010F0200F02D0204670
:1034BC00FFF748FF23685B6903F04003226C12F0AE
:1034CC00080F00D10BB32046FFF736FE23685A696C
:1034DC0012F0400F15D05A6922F040025A61A36BCA
:1034EC005BB14A4A5A63A06BFDF7E6FF002800F077
:1034FC008A80A06B436B984785E02046FFF716FF48
:10350C0081E02046FFF712FF7DE02046FFF70EFF1B
:10351C000023236477E0216B012961D113F0100F94
:10352C005ED010F0100F5BD0002301931368019351
:10353C0053680193019B536913F0400F30D0A16B7A
:10354C000B685B689BB2002B5DD0A08D83425AD276
:10355C00E3858B69202B1AD0D36823F48073D36056
:10356C002268536923F0010353612268536923F0E5
:10357C0040035361202384F83E30002323632268E8
:10358C00D36823F01003D360A06BFDF773FFA38DFA
:10359C00E18D89B2591A89B22046FFF7D1FE32E08B
:1035AC00A38DE18D89B2591A89B2E38D9BB253B3C5
:1035BC0049B3D36823F49073D3602268536923F022
:1035CC0001035361202384F83E30002323632268D7
:1035DC00D36823F01003D3602046FFF7B1FE12E04E
:1035EC0013F0800F06D010F0800F03D02046FFF7A9
:1035FC00BBFD08E013F0400F05D010F0400F02D0D7
:10360C002046FFF783FE03B030BD00BF3D330008FA
:10361C000C480D490D4A002302E0D458C450043321
:10362C00C4188C42F9D30A4A0A4C002301E01360F7
:10363C000432A242FBD3FDF7F7FF00F00FF8FCF7C2
:10364C0047FF7047000000200C0000205C38000889
:10365C000C00002028060020FEE700000E4B70B581
:10366C001E460E4C0025E41AA410A54204D056F8B0
:10367C00253098470135F8E700F074F8084B094CF1
:10368C001E46E41AA4100025A54204D056F8253095
:10369C0098470135F8E770BD5438000854380008D5
:1036AC005438000858380008931E222B10B50C46CD
:1036BC0002D90020087010BD0A2A06D1002804DAAD
:1036CC002D230B704042012100E00021214400F029
:1036DC000DF8204610BDFFF7E7BF034602449342A6
:1036EC0002D003F8011BFAE770470000F0B58BB06D
:1036FC0003460F466D461A4C04F1200E2E462068E8
:10370C006168083403C674453546F7D121792068C1
:10371C003171911E222930604FF0000001D93870B0
:10372C001CE07D1EB3FBF2F402FB14330AAE3344EF
:10373C0013F8283C411C05F8013F23460CB1084600
:10374C00F0E77C543A18C11A8B4206DAF95C14780B
:10375C00FC5402F801190133F5E738460BB0F0BD03
:10376C002F380008F8B500BFF8BC08BC9E4670475F
:0C377C00F8B500BFF8BC08BC9E467047C2
:1037880002030405060708090A0B0C0D0E0F10109A
:103798000102000000000000000000000102030414
:1037A800060708090000000001020304292C00088C
:1037B800A12C0008C92C00081815AF19FF0000003B
:1037C8001815AE19FF0000000001140A64643232B3
:1037D80000127A00000428961008000080004000BB
:1037E8001815A115C819FF001815AE15D51680159E
:1037F800A8163F15D316001540158D16141520165A
:103808000015A115C815DA1612158116CF15D91687
:10381800F115DB1640152E15A415A619FF0000009A
:103828001815A015C019FF30313233343536373802
:10383800396162636465666768696A6B6C6D6E6F2F
:0C384800707172737475767778797A006D
:043854003101000836
:043858000D01000856
:0C385C0010000000010000000024F40037
:040000050800361D9C
:00000001FF
